:10000000000200206D020000E5020000ED02000089
:10001000F5020000F5020000F502000000000000FB
:10002000000000000000000000000000F5020000D9
:10003000F502000000000000F5020000F5020000DB
:10004000F5020000F5020000F5020000F5020000D4
:10005000F5020000F5020000F5020000F5020000C4
:10006000F5020000F5020000F5020000F5020000B4
:10007000F5020000F5020000F5020000F5020000A4
:10008000F5020000F5020000F5020000F502000094
:10009000F5020000F5020000F5020000F502000084
:1000A000F5020000F5020000F5020000F502000074
:1000B000F5020000F5020000F5020000F502000064
:1000C000F5020000F5020000F5020000F502000054
:1000D000F5020000F5020000F5020000F502000044
:1000E000F5020000F5020000F5020000F502000034
:1000F000F5020000F5020000F5020000F502000024
:10010000F5020000F5020000F5020000F502000013
:10011000F5020000F5020000F5020000F502000003
:10012000F5020000F5020000F5020000F5020000F3
:10013000F5020000F5020000F5020000F5020000E3
:1001400000000000000000000000000000000000AF
:10015000F5020000F5020000F5020000F5020000C3
:10016000000000000000000000000000000000008F
:10017000000000000000000000000000000000007F
:10018000000000000000000000000000000000006F
:10019000000000000000000000000000000000005F
:1001A000000000000000000000000000000000004F
:1001B000F5020000F5020000F5020000F502000063
:1001C000F5020000F5020000F5020000F502000053
:1001D000F5020000F5020000F5020000F502000043
:1001E000F5020000F5020000F5020000F502000033
:1001F000F5020000F5020000F5020000F502000023
:10020000F5020000F5020000F50200000000000009
:10021000F5020000F5020000F5020000F502000002
:10022000F5020000F5020000F5020000F5020000F2
:10023000F5020000F5020000F5020000F5020000E2
:10024000F5020000F5020000F5020000F5020000D2
:10025000F5020000F5020000F5020000F5020000C2
:10026000F5020000F5020000F502000080B582B042
:1002700000AF40F6A463C0F200037B6040F20003CD
:10028000C2F200033B6007E03B681A1D3A607A68DF
:10029000111D796012681A603A6840F20003C2F2D8
:1002A00000039A42F0D30D480D494FF000028842F6
:1002B000B8BF40F8042BFADB4EF68853CEF20003A9
:1002C0004EF68852CEF20002126842F470021A60B2
:1002D00000F064F90837BD4680BD00000000002032
:1002E0000002002080B400AFFEE700BF80B400AF82
:1002F000FEE700BF80B400AFFEE700BF80B489B066
:1003000000AFF860B9607A607B68012B02DD7B6822
:10031000242B04DDBB6800221A70BB683FE0BB6879
:10032000FB61BB68BB61FB687B61FA687B6892FB21
:10033000F3F3FB60FA69531CFB61FB68796801FB0E
:1003400003F37969CB1A03F1230140F64C63C0F241
:1003500000035B5C1370FB68002BE4D17B69002B0E
:1003600004DAFB695A1CFA612D221A70FB695A1EC5
:10037000FA6100221A700DE0FB691B78FB74FB69BF
:100380005A1EFA61BA6912781A70BB695A1CBA61AE
:10039000FA7C1A70BA69FB699A42EDD3BB681846B9
:1003A0002437BD465DF8047B704700BF80B483B03E
:1003B00000AF4EF20813C4F20F034EF20812C4F25B
:1003C0000F02126842F008021A604EF20813C4F2DB
:1003D0000F031B687B604FF4E843C4F200034FF443
:1003E000E842C4F20002126842F00F021A6047F2BB
:1003F0002043C4F2000347F22042C4F20002126814
:1004000022F00F021A6047F21C53C4F2000347F2B5
:100410001C52C4F20002126842F00F021A600C373C
:10042000BD465DF8047B704780B483B000AF4EF2E8
:100430000813C4F20F034EF20812C4F20F0212683E
:1004400042F001021A604EF20813C4F20F031B6857
:100450007B604FF48843C4F200034FF48842C4F237
:100460000002126842F00F021A6044F22043C4F204
:10047000000344F22042C4F20002126822F00F028C
:100480001A6044F21C53C4F2000344F21C52C4F23A
:100490000002126842F00F021A600C37BD465DF888
:1004A000047B704780B483B000AF4EF20813C4F2EF
:1004B0000F034EF20812C4F20F02126842F010024B
:1004C0001A604EF20813C4F20F031B687B604FF4EE
:1004D0008843C4F202034FF48842C4F20202126855
:1004E00042F00F021A6044F22043C4F2020344F2C5
:1004F0002042C4F20202126822F00F021A6044F293
:100500001C53C4F2020344F21C52C4F202021268E9
:1005100042F00F021A600C37BD465DF8047B70474D
:1005200080B483B000AF4EF20813C4F20F034EF252
:100530000812C4F20F02126842F004021A604EF26E
:100540000813C4F20F031B687B604FF4C843C4F266
:1005500000034FF4C842C4F20002126842F00F02D6
:100560001A6046F22043C4F2000346F22042C4F26D
:100570000002126822F00F021A6046F21C53C4F205
:10058000000346F21C52C4F20002126842F00F024D
:100590001A600C37BD465DF8047B704780B590B09B
:1005A00000AF4FF4A860C0F2C01000F095FB00F05F
:1005B0000DF9FFF7FBFEFFF737FFFFF773FFFFF7BC
:1005C000AFFF4FF4E040C4F20000042100F036FB1E
:1005D0004FF4E040C4F20000082100F02FFB4FF080
:1005E0004020042100F02AFB4FF04020082100F0B9
:1005F00025FB4FF04020102100F020FB4FF48040FD
:10060000C4F20200082100F019FB4FF48040C4F24C
:100610000200042100F012FB4FF4C040C4F20000BD
:10062000102100F00BFB0023FB630023BB630023BE
:100630007B6300233B634FF4E040C4F200000421DD
:1006400000F0F6FA0346002B23D0FB6B0133FB636B
:10065000FA6B46F26763C6F2666383FB0213991076
:10066000D317C91A0B469B000B445B00D31AFB63DC
:1006700007F12403F86B19460A22FFF73FFE012019
:100680000C2100F00BFA07F12403184600F03EFAA3
:100690009AE04FF4E040C4F20000082100F0C8FAEC
:1006A0000346002B23D0BB6B0133BB63BA6B46F20E
:1006B0006763C6F2666383FB02139910D317C91AE6
:1006C0000B469B000B445B00D31ABB6307F1180376
:1006D000B86B19460A22FFF711FE01200D2100F028
:1006E000DDF907F11803184600F010FA6CE04FF43A
:1006F000C040C4F20000102100F09AFA0346002B1B
:100700000AD001200E2100F0C9F940F69460C0F231
:10071000000000F0FBF957E04FF04020082100F006
:1007200087FA0346002B23D07B6B01337B637A6B04
:1007300046F26763C6F2666383FB02139910D31710
:10074000C91A0B469B000B445B00D31A7B6307F16D
:100750000C03786B19460A22FFF7D0FD01200F2108
:1007600000F09CF907F10C03184600F0CFF92BE0DC
:100770004FF48040C4F20200082100F059FA034609
:10078000002B21D03B6B01333B633A6B46F267632E
:10079000C6F2666383FB02139910D317C91A0B467E
:1007A0009B000B445B00D31A3B633B46386B1946F6
:1007B0000A22FFF7A3FD0120102100F06FF93B464C
:1007C000184600F0A3F936E735E700BF80B500AF63
:1007D0000220C2F2000000F04DFA4FF4A040C4F233
:1007E0000000FF2100F038FA4CF2503000F070FAAF
:1007F0004FF4A040C4F200000121002200F01BFAD7
:100800004FF4A040C4F20000F021302200F013FAAF
:100810004FF4A040C4F200000221022200F00BFAC3
:100820000A2000F055FA4FF4A040C4F20000022163
:10083000002200F000FA4CF2503000F049FA4FF478
:10084000A040C4F20000F021302200F0F4F94FF48F
:10085000A040C4F200000221022200F0ECF90A20BC
:1008600000F036FA4FF4A040C4F20000022100224A
:1008700000F0E1F94CF2503000F02AFA4FF4A040B9
:10088000C4F20000F021302200F0D5F94FF4A0406E
:10089000C4F200000221022200F0CDF90A2000F08B
:1008A00017FA4FF4A040C4F200000221002200F029
:1008B000C2F94CF2503000F00BFA4FF4A040C4F2F1
:1008C0000000F021202200F0B6F94FF4A040C4F25D
:1008D00000000221022200F0AEF90A2000F0F8F92F
:1008E0004FF4A040C4F200000221002200F0A3F95E
:1008F0004CF2503000F0ECF9282000F013F8C02042
:1009000000F010F8062000F00DF8802000F00AF842
:10091000282000F007F80F2000F004F800F0ECF8B1
:1009200080BD00BF80B582B000AF0346FB71FB798C
:1009300023F00F03DBB24FF4A040C4F20000F0211B
:100940001A4600F078F94FF4A040C4F200000121EB
:10095000002200F070F94FF4A040C4F20000022120
:10096000022200F068F94CF2503000F0B1F94FF477
:10097000A040C4F200000221002200F05CF94CF219
:10098000503000F0A5F9FB791B01DBB24FF4A04019
:10099000C4F20000F0211A4600F04DF94FF4A040D7
:1009A000C4F200000121002200F045F94FF4A040FC
:1009B000C4F200000221022200F03DF90A2000F0FA
:1009C00087F94FF4A040C4F200000221002200F099
:1009D00032F94CF2503000F07BF90837BD4680BD4B
:1009E00080B582B000AF0346FB71FB7923F00F03A3
:1009F000DBB24FF4A040C4F20000F0211A4600F030
:100A00001AF94FF4A040C4F200000121012200F0C5
:100A100012F94FF4A040C4F200000221022200F0BB
:100A20000AF90A2000F054F94FF4A040C4F2000083
:100A30000221002200F0FFF84CF2503000F048F99B
:100A4000FB791B01DBB24FF4A040C4F20000F0219F
:100A50001A4600F0F0F84FF4A040C4F20000012163
:100A6000012200F0E8F84FF4A040C4F20000022197
:100A7000022200F0E0F80A2000F02AF94FF4A0402A
:100A8000C4F200000221002200F0D5F84CF25030F0
:100A900000F01EF90837BD4680BD00BF80B582B0AA
:100AA00000AF02460B46FA71BB7197F90730012B74
:100AB0000FD197F906305A1ED3171B0F1A4402F0B4
:100AC0000F02D31ADBB2803BDBB21846FFF72AFFD6
:100AD0000EE097F906305A1ED3171B0F1A4402F086
:100AE0000F02D31ADBB2403BDBB21846FFF71AFF06
:100AF0000837BD4680BD00BF80B500AF0120FFF7BD
:100B000011FF0A2000F0E4F880BD00BF80B582B07C
:100B100000AF786007E07B685A1C7A601B78DBB214
:100B20001846FFF75DFF7B681B78002BF3D1083771
:100B3000BD4680BDD0F8003412F0010F10B500F5AD
:100B4000806414BF0B438B43236012F0020FD0F874
:100B5000202400F5846314BF114322EA01011960C7
:100B600010BD30B5D0F8004512F0010F00F5A065BA
:100B700014BF0C438C432C60D0F8045500F5A064DE
:100B800012F0020F04F1040414BF0D438D432560DD
:100B9000D0F8084512F0040F00F5A16514BF0C430E
:100BA0008C432C6012F0080FD0F8182500F5A364D0
:100BB00014BF0A438A432260D0F80C4500F5A062B6
:100BC00013F0010F02F10C0214BF0C438C431460AC
:100BD000D0F8102513F0020F00F5A26414BF0A43E9
:100BE0008A432260D0F8144500F5A26213F0040F86
:100BF00002F1040214BF0C438C431460D0F81C456E
:100C000000F5A26213F0080F02F10C0214BF0C43AE
:100C10008C43146000F5A56223B9D0F8283543EA67
:100C2000010103E0D0F8283523EA0101116030BD4D
:100C300050F82100704740F82120704770B500221D
:100C400005460C46FFF776FF284621460122082379
:100C5000BDE87040FFF785BF70B501220823054647
:100C60000C46FFF77EFF284621460122BDE8704072
:100C7000FFF760BF00F07043B3F1704F15D100F47F
:100C80007F42114B120A00F0FF00D318800003F0DE
:100C9000704240F0007023F07F43104323F4700350
:100CA00040EA431301221A607047020F074B53F8C2
:100CB000223081B200F4F8101A68000C11FA00F02A
:100CC00010431860704700BF00E60F40980E000008
:100CD0000138FDD170470000534B1A6812F0E04F05
:100CE0002DE9F041044606D01A68504B02EA03038E
:100CF000B3F1805F02D1002CC0F294804C494D4A80
:100D00000B68166843F4006323F4800546F400661C
:100D100013F0020F0D60166002D014F0020F05D020
:100D200015F0010F1AD014F0010F17D164F003036E
:100D30001D403F4B002E1D6005DA06F07003302B7E
:100D400005D0702B02E005F03003302B02D14FF4B8
:100D5000805001E04FF40020FFF7BAFF04F4FE6377
:100D600025F4FE6545EA0308334D324F26F0004670
:100D700004EA050526F0700645EA060604F00805B3
:100D800046EAC5052A4E1020C6F800803D60FFF7F0
:100D90009FFF28F4405804F40052284904F44053BB
:100DA00025F4005548EA030340201543244A08600F
:100DB00052BF33603D60336023F0F86304EA0202FF
:100DC00023F0030358BF3D60134304F0FC5125F0AA
:100DD000FC5214F0804F42EA010208D0194922F473
:100DE000800204EA010143F480030A4301E022F097
:100DF000804214F4006F0CD14FF400411248006897
:100E000010F0400F01D10139F8D123F4006322F42E
:100E1000006207490B60074B10201A60BDE8F041E3
:100E2000FFF756BFBDE8F08100E00F400000FF7003
:100E300060E00F4070E00F403000008058E00F404D
:100E40000300C0070000404050E00F407A797877F7
:100E5000767574737271706F6E6D6C6B6A696867AA
:100E60006665646362613938373635343332313020
:100E700031323334353637383961626364656667D9
:100E800068696A6B6C6D6E6F70717273747576776A
:100E900078797A002E00000000E10F4004E10F4055
:040EA00008E10F4016
:00000001FF
